:020000000C945E
:100002004A000C9400000C9400000C9400000C9424
:1000120000000C9400000C9400000C9400000C945E
:1000220000000C9400000C9400000C9400000C944E
:1000320000000C9400000C9400000C9400000C943E
:1000420000000C9400000C9400000C9400000C942E
:10005200000000003F065B4F666D7D077F6F726593
:10006200640079656C6C6F77000080C001002D4ED2
:10007200414E00494E4600000100040054000A00AF
:100082006002560002006A026C0001006E026E00FD
:100092000000F894EE27ECBBF1E0FBBFEBBFE5BF3D
:1000A2008DE0A2E0BB27ED938A95E9F780E098E026
:1000B200A0E6ED930197E9F7EAE7F0E085919591E3
:1000C200009761F0A591B59105901590BF01F001DF
:1000D20005900D920197E1F7FB01F0CFEFE5EDBF3F
:1000E200E8E0EEBFC0E6D2E00C947700EFE0EABBB6
:1000F200E0E0EBBBE7BBE8BBEFEFE4BBE0E0E5BB76
:10010200EFEFE1BBE0E0E2BBE3BFE2BFECBFEFBD7C
:10011200EEBDEDBDECBDE7BDE6BDEBBDEABDE9BDA3
:10012200E8BDE2BDE5BDE4BDE3BDE9BFE5BFE4BFB7
:10013200EAB9E0E8E8B9E0E0E0BFE6B9EDB9E6BF68
:10014200A0E1F3D02297E1E0E883E0E0E983E9B3BC
:10015200E03199F45524ECE35E1668F4E1E00E9484
:10016200F201A0E6B0E00E940002E13011F09AD064
:1001720002C05394F0CF96D002C0E0E0EBBBE9B3EB
:10018200E03299F45524EAE05E1668F4E2E00E9457
:10019200F201A4E6B0E00E940002E23011F082D047
:1001A20002C05394F0CF7ED002C0E0E0EBBBE9B3D3
:1001B200E03409F045C0E0E0E5BBE2BB5524E4E0F1
:1001C2005E16E8F5A881A53031F4A4EFB1E00E94F3
:1001D2001F02E0E0E8834424EAE04E1620F5E4E062
:1001E200EBBBE42DF0E0E05AFD4FE081E2BBA4EF6F
:1001F200B1E00E941F02E9E0E41561F4E881F0E059
:10020200E05AFD4FE081E5BBE0916002E2BBE8818C
:10021200EF5FE883E9B3E43021F0E981EF5FE9833E
:1002220002C04394D9CFA981A13039F4E981E150C8
:10023200E983E0E0E5BBE2BB02C05394C0CF02C059
:10024200E0E0EBBB22967ECFFFCFAA93E8B3EF703C
:10025200AE2FE881E07FEA2BE8BB8DE08A95F1F7CB
:10026200C29A8DE08A95F1F7C2988DE08A95F1F7EE
:1002720088C0AA93A881E9DFE881E295E883A88192
:10028200E4DF85E88A95F1F77CC0AA93E881F0E083
:10029200E659FD4FE081A981AE0FEBDF79806880DE
:1002A20022960895A2E00E941102ACE0E2DFA1E0F2
:1002B2000E941102E0E06E2E7E2E0895AA93A8817C
:1002C200AA3011F0791448F0E0E0EA936394A62D85
:1002D200DCDFA881AA3009F454C07394C09AA881C3
:1002E200C8DFC0984EC0BA93AA931A93A981BA8163
:1002F200ED91A983BA831E2FE03019F0A12FDEDF22
:10030200F5CF10C0BA93AA931A93E981FA81319674
:10031200E983FA833197E4911E2FE03019F0A12F7F
:10032200CDDFF3CF188123960895AA93E7B3E06F48
:10033200E7BBBA9AB89AB99AC298C098C1989880FD
:10034200E881E058E0936C02E881E054E0936D02AA
:10035200A4E1B0E00E941F020E9417020E9417024D
:100362000E941702A0E271DF88EC90E00197F1F79A
:10037200A8E27FDFA4E07DDFA5E87BDFA6E079DFEE
:1003820091DF21960895BA93AA93A991B991E9911F
:10039200F99130962AF4E095F09531966DE26D93DD
:1003A200E89480E197E20DD088EE93E00AD084E6EB
:1003B200992707D08AE005D06E2F10D066276C935C
:1003C20008956627E817F90720F06395E81BF90BF3
:1003D200C9F7662311F416F008956894605D6D9371
:1003E2000895EBBBE52DF0E0FA93EA93DE01149653
:1003F2000E94C401E3E0EA93A0E00C9446010E944B
:100402008301E0E0EA93A1E00E944601DE01129638
:100412000E947401A4EFB1E00E941F02E9B30895A3
:100422000E943A01A3E0B0E00C941F02A0E30E94F4
:10043200260188EC90E00197F1F70895109639F0C3
:1004420080ED97E00197F1F7A8951197C9F7089504
:00000001FF
